:1000000014C02EC02DC02CC02BC02AC029C028C0AF
:1000100027C069C025C024C023C022C021C020C081
:100020001FC01EC01DC06FC01BC011241FBECFE566
:10003000D2E0DEBFCDBF10E0A0E6B0E0E2E7F1E045
:1000400002C005900D92A036B107D9F710E0A0E6E6
:10005000B0E001C01D92A436B107E1F760D088C0BE
:10006000CFCF109263001092620020E030E040E0B9
:1000700050E0000000000000000000000000000050
:10008000000000000000000000004F5F5F4F63E0D1
:100090004132560771F72F5F3F4F8217930738F7AA
:1000A000309363002093620050936100409360009E
:1000B0000895109263001092620020E030E000008A
:1000C0000000000000000000000000000000000030
:1000D00000002F5F3F4F8217930788F7309363002C
:1000E0002093620008951F920F920FB60F92112471
:1000F0008F9380E582BB88E185BB8F910F900FBE07
:100100000F901F9018951F920F920FB60F92112407
:1001100012BA15BA0F900FBE0F901F9018958FEF5F
:1001200081BB88E184BB80EF8BBB83E089BF8AE41D
:1001300083BF12BE86E98CBF7894CC990BC08FE048
:1001400090E08FDF8CB78F5F8CBF8CB78B3F10F048
:100150008BEF8CBFCD99F1CF8FE090E082DF8CB731
:1001600081508CBF8CB7843040F783E08CBFE5CFE3
:02017000FFCFBF
:00000001FF
