:1000000014C02EC02DC02CC02BC02AC0F6C002C107
:1000100027C026C025C024C023C022C021C020C0C4
:100020001FC01EC01DC01CC01BC011241FBECFE5B9
:10003000D2E0DEBFCDBF10E0A0E6B0E0E0E1F6E048
:1000400002C005900D92A036B107D9F710E0A0E6E6
:10005000B0E001C01D92A937B107E1F76BD1D7C25B
:10006000CFCF109275001092740020E030E040E095
:1000700050E0000000000000000000000000000050
:10008000000000000000000000004F5F5F4F63E0D1
:100090004132560771F72F5F3F4F8217930738F7AA
:1000A000309375002093740050936B0040936A0066
:1000B0000895109275001092740020E030E0000066
:1000C0000000000000000000000000000000000030
:1000D00000002F5F3F4F8217930788F7309375001A
:1000E0002093740008951BB888E18AB986E880BD22
:1000F00010BC87E689B984E690E0B3DF08955F9B82
:10010000FECF8CB19927089520E030E00000000078
:1001100000000000000000000000000000000000DF
:100120002F5F3F4F8217930788F70895CF93DF9390
:10013000EC0107C08CB95E9BFECF219688EE93E060
:10014000E3DF88818823B1F7DF91CF9108958CB9DF
:100150005E9BFECF88EE93E0D7DF0895DF92EF92AB
:10016000FF920F931F93D82E64E61ED2282F84E6A9
:10017000E82E2E9D700111248D2D99278E199F092F
:100180006AE070E01DD28B01822F805DE0DF802F5E
:10019000805DDDDFDE188AE0089FC0011124D81AD7
:1001A0008D2D805DD4DF1F910F91FF90EF90DF9038
:1001B000089586E886B9089590E697B997B1982B87
:1001C00097B9369A81E090E04CDF85B19927089580
:1001D00083E08FBD8AE18EBD1DBC1CBC17BC16BC64
:1001E00087E28BBD9FE09ABD8DE189BD8BE488BD20
:1001F00088E189BF97BB789408951F920F920FB63C
:100200000F92112418BA1DBC1CBC0F900FBE0F908A
:100210001F9018951F920F920FB60F9211248F9373
:100220009F9380916C0090916D0081309105B9F0A1
:10023000823091051CF4892B39F037C0823091054A
:10024000E9F0039791F525C08091650089BD809103
:10025000700088BD81E088BB81E090E00AC0809199
:10026000690089BD8091760088BD82E088BB82E00C
:1002700090E090936D0080936C0017C080917300A4
:1002800089BD8091710088BD84E088BB83E090E0E7
:10029000F0CF80916E0089BD80916F0088BD88E0AD
:1002A00088BB10926D0010926C009F918F910F90FF
:1002B0000FBE0F901F901895CF93DF93EA012AEBA2
:1002C00039E443EA51E425D120E030E24EE955E437
:1002D0006CD0ADD0C230D10549F460937600872F41
:1002E0009927809368008093690021C0C330D105AD
:1002F00049F460937100872F992780936800809359
:10030000730015C0209749F460936F00872F9927D9
:100310008093680080936E000AC0219741F4609337
:100320007000872F99278093680080936500DF9184
:10033000CF910895DF92EF92FF920F931F9380EF7A
:1003400081BB86E886B9CFDE43DF80E035DFF82E5B
:1003500081E032DF082F82E02FDF182F682F772708
:1003600067FD7095872F972F7FD017FF05C020E07E
:1003700030E040E853E419D040E050E09DDF12BA8D
:10038000EF1410F480E482BBFE1410F480E882BB0A
:10039000D01608F4949A0D1508F4959A81E090E02F
:1003A00060DED02EEF2CD1CF5058192E84D001D042
:1003B0006AC0BA176207730784079507B1F188F41A
:1003C0000EF410940B2EBA2FA02D062E622F202D86
:1003D000072E732F302D082E842F402D092E952F98
:1003E000502DFF275523B9F0591B49F0573E98F07F
:1003F000469537952795A795F0405395C9F776F020
:10040000BA0F621F731F841F30F487957795679525
:10041000B795F040939517FA0F2E0895BF1BBB2791
:10042000BA0B620B730B840BF6CFDEF670C097FB32
:100430004ED09F3738F0FEE9F91B982F872F762F83
:100440006B2F05C061C09695879577956795F1509C
:10045000D0F73EF490958095709561957F4F8F4FC2
:100460009F4F0895E89403C097FB0EF4F3DFB62F77
:10047000672F782F892F9EE9002405C09A95BB0F1E
:10048000661F771F881F11249923A1F08823B2F7D4
:100490009F3F59F0BB0F48F421F4002011F460FF96
:1004A00004C06F5F7F4F8F4F9F4F881F9795879531
:1004B00097F9089529C0052E092607FA440F551FFC
:1004C0005F3F79F0AA27A51708F051E04795880FFC
:1004D000991F9F3F31F0BB27B91708F091E087952E
:1004E00008959F919F9111245CC097FB880F991FDD
:1004F0009F3F31F0BB27B91708F091E08795089529
:100500009F919F9111244DC06627772788279927AF
:100510000895D1DF01D0B7CF992339F0552329F0C1
:100520009F575F57950F13F49AF1F1CF91589F3F62
:10053000E1F3629FA12D0F92BB27639FA00DB11D18
:10054000EE27729FA00DB11DEE1FAF93AA27649FE7
:10055000B00DE11D739FB00DE11DAA1F6627829F9C
:10056000B00DE11DA61F5527749FE00DA11D551F5D
:10057000839FE00DA11D561F849FA00D511D852F47
:100580007A2F6E2F1F900F9088231AF4939539F4C9
:1005900008C0000C111CBB1F661F771F881F012895
:1005A00008959FEF80EC0895991B79E004C0991F8E
:1005B000961708F0961B881F7A95C9F780950895BD
:1005C00097FB092E07260AD077FD04D00CD006D061
:1005D00000201AF4709561957F4F0895F6F7909575
:1005E00081959F4F0895AA1BBB1B51E107C0AA1F0D
:1005F000BB1FA617B70710F0A61BB70B881F991FC4
:100600005A95A9F780959095BC01CD010895FFCF2B
:00000001FF
