:1000000014C02EC02DC02CC02BC02AC029C028C0AF
:1000100027C027C025C024C023C022C021C020C0C3
:100020001FC01EC01DC01CC01BC011241FBECFE5B9
:10003000D2E0DEBFCDBF10E0A0E6B0E0EAE9F0E03C
:1000400002C005900D92A036B107D9F710E0A0E6E6
:10005000B0E001C01D92A036B107E1F714D01CC07A
:10006000CFCF1F920F920FB60F9211248F939F93B1
:1000700085B398E1892785BB9F918F910F900FBE23
:100080000F901F90189588EF84BB81E089BF85E0B1
:0A00900083BF12BE7894FFCFFFCFAC
:00000001FF
