:1000000014C02EC02DC02CC02BC02AC029C028C0AF
:1000100027C026C025C024C023C022C021C020C0C4
:100020001FC01EC01DC01CC01BC011241FBECFE5B9
:10003000D2E0DEBFCDBF10E0A0E6B0E0E8E5F2E040
:1000400002C005900D92A036B107D9F710E0A0E6E6
:10005000B0E001C01D92A836B107E1F7B9D0FBC0EE
:10006000CFCF109265001092640020E030E040E0B5
:1000700050E0000000000000000000000000000050
:10008000000000000000000000004F5F5F4F63E0D1
:100090004132560771F72F5F3F4F8217930738F7AA
:1000A0003093650020936400509363004093620096
:1000B0000895109265001092640020E030E0000086
:1000C0000000000000000000000000000000000030
:1000D00000002F5F3F4F8217930788F7309365002A
:1000E0002093640008951BB888E18AB986E880BD32
:1000F00010BC87E689B984E690E0B3DF08955F9B82
:10010000FECF8CB19927089520E030E00000000078
:1001100000000000000000000000000000000000DF
:100120002F5F3F4F8217930788F70895CF93DF9390
:10013000EC0107C08CB95E9BFECF219688EE93E060
:10014000E3DF88818823B1F7DF91CF9108958CB9DF
:100150005E9BFECF88EE93E0D7DF0895DF92EF92AB
:10016000FF920F931F93D82E64E642D0282F84E687
:10017000E82E2E9D700111248D2D99278E199F092F
:100180006AE070E041D08B01822F805DE0DF802F3C
:10019000805DDDDFDE188AE0089FC0011124D81AD7
:1001A0008D2D805DD4DF1F910F91FF90EF90DF9038
:1001B000089586E886B9089590E697B997B1982B87
:1001C00097B9369A81E090E04CDF85B19927089580
:1001D00080EF81BB84BB80E882BB85BB88EE93E067
:1001E00040DF80E482BB85BB88EE93E03ADFF3CF4B
:1001F000991B79E004C0991F961708F0961B881F79
:100200007A95C9F78095089597FB092E07260AD09D
:1002100077FD04D00CD006D000201AF470956195BB
:100220007F4F0895F6F7909581959F4F0895AA1BEB
:10023000BB1B51E107C0AA1FBB1FA617B70710F0D1
:10024000A61BB70B881F991F5A95A9F78095909503
:08025000BC01CD010895FFCFB0
:00000001FF
