:1000000014C02EC02DC02CC02BC02AC029C028C0AF
:1000100027C026C025C024C023C022C021C020C0C4
:100020001FC01EC01DC01CC01BC011241FBECFE5B9
:10003000D2E0DEBFCDBF10E0A0E6B0E0E8E4F1E042
:1000400002C005900D92A036B107D9F710E0A0E6E6
:10005000B0E001C01D92A436B107E1F744D073C0EF
:10006000CFCF109263001092620020E030E040E0B9
:1000700050E0000000000000000000000000000050
:10008000000000000000000000004F5F5F4F63E0D1
:100090004132560771F72F5F3F4F8217930738F7AA
:1000A000309363002093620050936100409360009E
:1000B0000895109263001092620020E030E000008A
:1000C0000000000000000000000000000000000030
:1000D00000002F5F3F4F8217930788F7309363002C
:1000E0002093620008958FEF8BBB1ABA18BA87BBB2
:1000F000CC9B0AC00BC018BA80E596E4DADF8FEF1C
:1001000088BB80ED97E0D5DFCC9BF5CFCD9B0AC0B7
:100110000BC018BA88E39AE4CCDF8FEF88BB88EE77
:1001200093E0C7DFCD9BF5CFCE9B0AC0E1CF18BAD5
:1001300084E498E4BEDF8FEF88BB8CED95E0B9DFF7
:08014000CE9BF5CFD5CFFFCF18
:00000001FF
