:100000000C942A000C9445000C9445000C94450077
:100010000C9445000C9445000C9445000C9445004C
:100020000C9445000C9445000C9445000C9445003C
:100030000C9445000C9445000C9445000C9445002C
:100040000C9445000C9445000C9445000C9445001C
:100050000C94450011241FBECFE5D4E0DEBFCDBF18
:1000600010E0A0E6B0E0EEE4F3E002C005900D92EF
:10007000AE36B107D9F710E0AEE6B0E001C01D9290
:10008000A537B107E1F70C946D010C9400001092B4
:1000900074001092730020E030E040E050E0000077
:1000A0000000000000000000000000000000000050
:1000B0000000000000004F5F5F4F63E041325607D1
:1000C00071F72F5F3F4F8217930738F73093740013
:1000D0002093730050937200409371000895109222
:1000E00074001092730020E030E000000000000077
:1000F00000000000000000000000000000002F5F72
:100100003F4F8217930788F7309374002093730052
:10011000089510926F0020916E0090E002C09F5FE2
:100120002BE09817E0F320936E0090936F000895F2
:10013000AA9888EC0E948900AA9A88EC0E948900FB
:10014000AA9808950F931F93082F85B3887F85BBC6
:10015000802F807F85BB0E94980011270F70107040
:1001600084E0000F111F8A95E1F705BB0E949800FB
:100170001F910F9108951F93182F81E085BB15BA29
:10018000812F807F816085BB0E9498001295107F2F
:10019000116015BB0E9498001F910895EF92FF9285
:1001A0000F931F93CF93DF937C0181E085BB15BA3A
:1001B00000E010E014C0903119F480EC0E94A2001D
:1001C0008881807F816085BB0E94980088818295AC
:1001D000807F816085BB0E9498000F5F1F4F902F2A
:1001E000E701C00FD11D8881882329F7DF91CF91C6
:1001F0001F910F91FF90EF900895DF92EF92FF9281
:100200000F931F93D82E64E60E947401282F94E662
:10021000E92E8E9D700111248D2D99278E199F092D
:100220006AE070E00E9480018B01822F805D0E9455
:10023000BB00802F805D0E94BB00DE188AE0089F13
:10024000C0011124D81A8D2D805D0E94BB001F9122
:100250000F91FF90EF90DF900895882329F4862F67
:1002600080580E94A2000895813021F4862F805486
:100270000E94A200089509C020E030E000002F5F36
:100280003F4F4CE02C3C3407C9F701972FEF8F3FCD
:10029000920791F7089584E190E00E943B0185B3B5
:1002A000809370008FEF84BB87BB8FE090E00E944B
:1002B0003B0180E285BB81E00E94A20082E00E94B7
:1002C000A20080E80E94A20084E190E00E943B012D
:1002D000089581E00E94A20008950E944B0180E6EB
:1002E00090E00E94CE00FFCF991B79E004C0991FD7
:1002F000961708F0961B881F7A95C9F78095089580
:1003000097FB092E07260AD077FD04D00CD006D023
:1003100000201AF4709561957F4F0895F6F7909537
:1003200081959F4F0895AA1BBB1B51E107C0AA1FCF
:10033000BB1FA617B70710F0A61BB70B881F991F86
:0E0340005A95A9F780959095BC01CD010895BE
:0E034E00544543484E4F5048494C4941000029
:00000001FF
