:100000000C942A000C9434000C9434000C943400AA
:100010000C9434000C9434000C9434000C94340090
:100020000C9434000C9434000C9434000C94340080
:100030000C9434000C9434000C9434000C94340070
:100040000C9434000C9434000C9434000C94340060
:100050000C94340011241FBECFE5D4E0DEBFCDBF29
:100060000E9436000C9455000C9400001ABA8FEFD1
:1000700084BB90E540E930E620EA89B3863009F494
:1000800095BB89B3883009F445BB89B3813009F445
:1000900035BB89B3882309F425BB89B3823019F0B5
:0E00A00089B3883051F795BBE8CFF894FFCFB5
:00000001FF
