:100000000C942A000C94C70B0C94A60A0C9447007D
:100010000C9447000C9447000C9447000C94470044
:100020000C9447000C9447000C9447000C94470034
:100030000C9447000C9447000C9447000C94470024
:100040000C9447000C9447000C944F0B0C94470001
:100050000C94470011241FBECFE5D4E0DEBFCDBF16
:1000600012E0A0E6B0E0EEECF7E202C005900D92DF
:10007000A634B107D9F712E0A6E4B2E001C01D92A0
:10008000A437B107E1F70E94CC040C94E5130C945B
:10009000000084B3807F84BBAD9AAC9881E08A95E0
:1000A000F1F721E0AE9A822F8A95F1F783B382951A
:1000B000807F922F9A95F1F7AE98922F9A95F1F74B
:1000C000AE9A922F9A95F1F793B3922F9A95F1F7F2
:1000D000AE98922F9A95F1F787FDE4CFAD9884B34F
:1000E0008F6084BB0895382F662311F4AC9801C04B
:1000F000AC9A21E0822F8A95F1F7AE9A85B3932FBF
:1001000092959F70807F982B95BB822F8A95F1F7EF
:10011000AE98822F8A95F1F7AE9A85B33F70807FB3
:10012000832B85BB822F8A95F1F7AE982A95F1F73C
:100130000E94490008951F93182F8CE49DE10197B8
:10014000F1F784B38F6084BBA69AA49AA59A85B36D
:10015000807F85BBAE98AD98AC9881E0982F9A953A
:10016000F1F7AE9AA99A982F9A95F1F7AE988A95D9
:10017000F1F70E944900812F8C6060E00E947300BB
:1001800088E260E00E9473001F910895CF93DF938F
:10019000EC0104C061E00E947300219688818823ED
:1001A000C9F7DF91CF910895EF92FF920F931F93BC
:1001B000DF93CF9300D000D00F92CDB7DEB79C0174
:1001C0008B01FE01319685E0DF011D928A95E9F7EA
:1001D000FE0135960DC0C9016AE070E00E948713E8
:1001E0008083C9016AE070E00E9487139B01319708
:1001F0002115310581F7BFEF0F3F1B0779F420E090
:1002000030E0AE014F5F5F4F02C02F5F3F4FFA01FA
:10021000E20FF31F80818823C1F304C025E030E0A2
:10022000201B310B7E010894E11CF11CE20EF31E31
:10023000890109C0F70181917F01805D61E00E9421
:1002400073000F5F1F4F05301105A4F30F900F903F
:100250000F900F900F90CF91DF911F910F91FF9012
:10026000EF900895883230F461118064806860E016
:100270000E9473000895A79AAF988D9A8E9A8F9ACC
:100280008C9A889A899A9598969897989498909825
:100290009198949A959A8A988B98BA981ABA1BBA98
:1002A000089581EA8FBD8AE08EBD089585B78B7F62
:1002B00085BF85B7877F85BF85B78E7F85BF85B7AB
:1002C0008D7F85BF85B78F7B85BF8BB780648BBFE4
:1002D0008BB780688BBF8BB780628BBF08952F92DE
:1002E0003F924F925F926F927F928F929F92AF92C6
:1002F000BF92CF92DF92EF92FF920F931F93DF9303
:10030000CF9300D000D0CDB7DEB780914602909158
:100310004702A0914802B091490280934A0290930B
:100320004B02A0934C02B0934D02809156029091E3
:1003300057029A838983E0906C02F0906D022090BE
:100340006402309065028090620290906302009196
:1003500058021091590260906E0270906F024090A6
:10036000540250905502E0915A02F0915B02FC83D6
:10037000EB83B701660F771F6E0D7F1D9101220F72
:10038000331F620F731F680F791F9401220F331FF1
:10039000220F331F280D391D620F731F9801220F82
:1003A000331F220F331F620F731F930153E0220F7D
:1003B000331F5A95E1F726193709620F731F92010F
:1003C000220F331F240D351D220F331F620F731FA1
:1003D0009F0183E0220F331F8A95E1F7620F731F9D
:1003E00080E090E00E9419115B016C0189819A8183
:1003F000E80EF91EE20CF31CE80CF91CE00EF11EED
:10040000E60CF71CE40CF51CEB81FC81EE0EFF1EE4
:1004100000E010E0C801B7010E9419119B01AC0176
:10042000C601B5010E945B0F20E030E040E950E4D6
:100430000E94030E60934602709347028093480225
:10044000909349020F900F900F900F90CF91DF91F2
:100450001F910F91FF90EF90DF90CF90BF90AF90E2
:100460009F908F907F906F905F904F903F902F90D4
:100470000895959A9698979A0895949A9098919A33
:100480000895959A969A97980895949A909A919823
:100490000895959A969A979A0895949A909A919A0F
:1004A0000895CF92DF92EF92FF920F931F93CF9315
:1004B000DF9320E030E040E251E40E94610E7B01D6
:1004C0008C01C0E0D0E068EAC62E61E6D62E04C0FA
:1004D000C6010197F1F72196BE01882777FD809527
:1004E000982F0E946710A80197010E94371087FD7E
:1004F000EFCFDF91CF911F910F91FF90EF90DF90A1
:10050000CF900895AF9A0895AF98089580E889BB79
:1005100089B3803831F481E090E090935702809362
:10052000560280E489BB89B3803431F481E090E0E5
:10053000909365028093640280E289BB89B3803224
:1005400031F481E090E090936D0280936C0280E141
:1005500089BB89B3803131F481E090E090935902F6
:100560008093580288E089BB89B3883031F481E0F8
:1005700090E0909363028093620284E089BB89B328
:10058000843031F481E090E09093550280935402DE
:1005900082E089BB89B3823031F481E090E09093AE
:1005A0006F0280936E0281E089BB89B3813031F4A0
:1005B00081E090E090935B0280935A02089580E07E
:1005C00061E00E943201809156029091570261E0F1
:1005D00070E00E94D40082E061E00E9432018091CC
:1005E00064029091650261E070E00E94D40084E0B2
:1005F00061E00E94320180916C0290916D0261E095
:1006000070E00E94D40086E061E00E943201809197
:1006100058029091590261E070E00E94D40089E094
:1006200061E00E943201809162029091630261E078
:1006300070E00E94D4008BE061E00E943201809162
:1006400054029091550261E070E00E94D4008DE068
:1006500061E00E94320180916E0290916F0261E030
:1006600070E00E94D4008FE061E00E94320180912E
:100670005A0290915B0261E070E00E94D4000895FC
:100680008D32910509F42AC18E329105F4F4893135
:10069000910509F4EFC08A3191055CF48A30910527
:1006A00009F446C08431910509F45DC0892B69F1D4
:1006B00008958332910509F4F6C08832910509F452
:1006C00078C04E9709F067C161C08134910509F483
:1006D00037C18234910564F48733910509F417C159
:1006E0008C33910509F48BC0C29709F054C174C0D2
:1006F0008B34910509F441C18035910509F4A5C0F9
:100700008634910509F047C18DC081E060E00E9408
:10071000730080E060E00E94320180E690E00E9479
:10072000C60080E061E00E94320181E790E012C0E3
:1007300081E060E00E94730080E060E00E9432018E
:1007400080E690E00E94C60080E061E00E943201F5
:1007500080E890E00E94C60088E061E00E943201DB
:1007600087E790E084C081E060E00E94730080E051
:1007700060E00E94320187E790E00E94C60080E0BE
:1007800061E00E94320186E890E071C081E060E0A3
:100790000E94730080E060E00E94320187E790E0F1
:1007A0000E94C60080E061E00E94320183E990E08F
:1007B0005EC081E060E00E94730080E060E00E9423
:1007C000320187E790E00E94C60080E061E00E946D
:1007D000320181EA90E04BC081E060E00E9473004A
:1007E00080E060E00E94320187E790E00E94C6004E
:1007F00080E061E00E94320180EB90E038C081E04F
:1008000060E00E94730080E060E00E94320187E7B0
:1008100090E00E94C60080E061E00E9432018CEB13
:1008200090E025C081E060E00E94730080E060E01D
:100830000E94320187E790E00E94C60080E061E0FC
:100840000E9432018AEC90E012C081E060E00E94D8
:10085000730080E060E00E94320187E790E00E9430
:10086000C60080E061E00E9432018BED90E00E94C2
:10087000C600089581E060E00E94730080E060E0BF
:100880000E94320187E790E00E94C60080E061E0AC
:100890000E94320183EE90E00E94C60080913401F4
:1008A0009091350118C081E060E00E94730080E003
:1008B00060E00E94320187E790E00E94C60080E07D
:1008C00061E00E9432018FEE90E00E94C6008091AC
:1008D00036019091370163E070E04CC081E060E048
:1008E0000E94730080E060E00E94320187E790E0A0
:1008F0000E94C60080E061E00E9432018CEF90E02F
:100900000E94C600809138019091390131C081E088
:1009100060E00E94730080E060E00E94320187E79F
:1009200090E00E94C60080E061E00E9432018AE00F
:1009300091E00E94C60080913A0190913B0118C05D
:1009400081E060E00E94730080E060E00E9432017C
:1009500087E790E00E94C60080E061E00E943201DB
:1009600085E191E00E94C60080913C0190913D019B
:1009700062E070E00E94D400089581E060E00E948F
:10098000730080E060E00E94320182E291E00E9408
:10099000C6000E94DF0208952F923F924F925F920D
:1009A0006F927F928F929F92AF92BF92CF92DF927F
:1009B000EF92FF920F931F93CF93DF930E943B011F
:1009C0000E94560181EA8FBD8AE08EBD80E00E94C0
:1009D0009B0081E060E00E9473007894AF9A81E010
:1009E00060E00E94730080E060E00E94320180E6D7
:1009F00090E00E94C60020E030E048EA51E605C0E1
:100A0000CA010197F1F72F5F3F4F2A303105C1F737
:100A100083E061E00E9432018AE291E00E94C60018
:100A200020E030E048EA51E605C0CA010197F1F73D
:100A30002F5F3F4F2A303105C1F780E090E00E94E0
:100A40004003CFEFD0E080913201882309F079C5CF
:100A500089B3882309F098C00E9486020E946F0122
:100A60006090460270904702809048029090490240
:100A7000609138017091390180E090E00E94191175
:100A80009B01AC01C401B3010E94610E1B012C014A
:100A9000609370027093710280937202909373025C
:100AA000C401B3012091660230916702409168024F
:100AB000509169020E94340E7B018C0160913A01D1
:100AC00070913B0180E090E00E9419119B01AC0104
:100AD000C801B7010E94610E5B016C016093660260
:100AE000709367028093680290936902C401B30116
:100AF00020914A0230914B0240914C0250914D029C
:100B00000E94030E7B018C0160935002709351028E
:100B10008093520290935302C201B101A601950144
:100B20000E94340EA80197010E94340E7B018C01B3
:100B300060935C0270935D0280935E0290935F020B
:100B4000609136017091370180E090E00E941911A8
:100B50005B016C01A80197010E94340E0E948B0C6E
:100B60004B017093610260936002C601B501A80158
:100B700097010E94030E0E948B0C9B0170936B02E5
:100B800060936A0282E8D2C489B3883139F089B3AC
:100B9000803121F089B3883009F0A2C00E9486021A
:100BA0000E946F0160904602709047028090480258
:100BB00090904902609138017091390180E090E095
:100BC0000E9419119B01AC01C401B3010E94610E86
:100BD0001B012C016093700270937102809372026A
:100BE00090937302C401B3012091660230916702B1
:100BF00040916802509169020E94340E7B018C0181
:100C000060913A0170913B0180E090E00E941911DF
:100C10009B01AC01C801B7010E94610E5B016C0130
:100C200060936602709367028093680290936902F2
:100C3000C401B30120914A0230914B0240914C0211
:100C400050914D020E94030E7B018C016093500273
:100C5000709351028093520290935302C201B101EA
:100C6000A60195010E94340EA80197010E94340E3E
:100C70007B018C0160935C0270935D0280935E0245
:100C800090935F02609136017091370180E090E0AF
:100C90000E9419115B016C01A80197010E94340E9A
:100CA0000E948B0C4B017093610260936002C6013D
:100CB000B501A80197010E94030E0E948B0C9B01B5
:100CC00070936B0260936A0282E882BBCE01821B42
:100CD000930B9BBD8ABDCE018819990999BD88BD2A
:100CE00089B3803381F089B3883369F089B388355B
:100CF00051F089B3883739F089B3883F21F089B33F
:100D0000803E09F0A2C00E9486020E946F0160909E
:100D1000460270904702809048029090490260918C
:100D200038017091390180E090E00E9419119B0117
:100D3000AC01C401B3010E94610E1B012C01609340
:100D40007002709371028093720290937302C401D7
:100D5000B301209166023091670240916802509180
:100D600069020E94340E7B018C0160913A017091FE
:100D70003B0180E090E00E9419119B01AC01C80189
:100D8000B7010E94610E5B016C0160936602709373
:100D900067028093680290936902C401B3012091B5
:100DA0004A0230914B0240914C0250914D020E94F8
:100DB000030E7B018C01609350027093510280936B
:100DC000520290935302C201B101A60195010E9403
:100DD000340EA80197010E94340E7B018C016093B0
:100DE0005C0270935D0280935E0290935F0260915B
:100DF00036017091370180E090E00E9419115B018B
:100E00006C01A80197010E94340E0E948B0C4B01CB
:100E10007093610260936002C601B501A801970159
:100E20000E94030E0E948B0C9B0170936B026093D7
:100E30006A0280E882BBCE01821B930B9BBD8ABDF8
:100E4000CE018819990999BD88BD89B38C3081F08C
:100E500089B38C3169F089B38A3151F089B38E310D
:100E600039F089B38F3121F089B3873009F0A2C0FE
:100E70000E9486020E946F016090460270904702B5
:100E80008090480290904902609138017091390138
:100E900080E090E00E9419119B01AC01C401B301F4
:100EA0000E94610E1B012C0160937002709371020D
:100EB0008093720290937302C401B3012091660281
:100EC0003091670240916802509169020E94340E8D
:100ED0007B018C0160913A0170913B0180E090E0D0
:100EE0000E9419119B01AC01C801B7010E94610E5B
:100EF0005B016C01609366027093670280936802E5
:100F000090936902C401B30120914A0230914B02CF
:100F100040914C0250914D020E94030E7B018C01C6
:100F20006093500270935102809352029093530247
:100F3000C201B101A60195010E94340EA8019701DA
:100F40000E94340E7B018C0160935C0270935D0201
:100F500080935E0290935F02609136017091370139
:100F600080E090E00E9419115B016C01A8019701DB
:100F70000E94340E0E948B0C4B01709361026093AF
:100F80006002C601B501A80197010E94030E0E94EC
:100F90008B0C9B0170936B0260936A0282E082BBB0
:100FA000CE01821B930B9BBD8ABDCE018819990986
:100FB00099BD88BD89B38F3F09F0A1C00E94860208
:100FC0000E946F0160904602709047028090480234
:100FD00090904902609138017091390180E090E071
:100FE0000E9419119B01AC01C401B3010E94610E62
:100FF0001B012C0160937002709371028093720246
:1010000090937302C401B30120916602309167028C
:1010100040916802509169020E94340E7B018C015C
:1010200060913A0170913B0180E090E00E941911BB
:101030009B01AC01C801B7010E94610E5B016C010C
:1010400060936602709367028093680290936902CE
:10105000C401B30120914A0230914B0240914C02ED
:1010600050914D020E94030E7B018C01609350024F
:10107000709351028093520290935302C201B101C6
:10108000A60195010E94340EA80197010E94340E1A
:101090007B018C0160935C0270935D0280935E0221
:1010A00090935F02609136017091370180E090E08B
:1010B0000E9419115B016C01A80197010E94340E76
:1010C0000E948B0C4B017093610260936002C60119
:1010D000B501A80197010E94030E0E948B0C9B0191
:1010E00070936B0260936A0212BACE01821B930B5B
:1010F0009BBD8ABDCE018819990999BD88BD89B368
:101100008C3339F089B38A3521F089B3893909F0F4
:10111000A2C00E9486020E946F01609046027090F9
:101120004702809048029090490260913801709186
:10113000390180E090E00E9419119B01AC01C401CB
:10114000B3010E94610E1B012C0160937002709329
:1011500071028093720290937302C401B3012091D3
:1011600066023091670240916802509169020E94C4
:10117000340E7B018C0160913A0170913B0180E05B
:1011800090E00E9419119B01AC01C801B7010E94B7
:10119000610E5B016C01609366027093670280933D
:1011A000680290936902C401B30120914A02309110
:1011B0004B0240914C0250914D020E94030E7B0164
:1011C0008C0160935002709351028093520290936D
:1011D0005302C201B101A60195010E94340EA8017B
:1011E00097010E94340E7B018C0160935C02709326
:1011F0005D0280935E0290935F0260913601709170
:10120000370180E090E00E9419115B016C01A80198
:1012100097010E94340E0E948B0C4B017093610267
:1012200060936002C601B501A80197010E94030EF8
:101230000E948B0C9B0170936B0260936A0282E0A8
:1012400082BBCE01821B930B9BBD8ABDCE01881948
:10125000990999BD88BD89B38430B1F089B38230D2
:1012600099F089B3813081F089B3863069F089B310
:10127000833051F089B38B3139F089B38E3021F04E
:1012800089B3893109F0A2C00E9486020E946F01D1
:101290006090460270904702809048029090490208
:1012A000609138017091390180E090E00E9419113D
:1012B0009B01AC01C401B3010E94610E1B012C0112
:1012C0006093700270937102809372029093730224
:1012D000C401B30120916602309167024091680217
:1012E000509169020E94340E7B018C0160913A0199
:1012F00070913B0180E090E00E9419119B01AC01CC
:10130000C801B7010E94610E5B016C016093660227
:10131000709367028093680290936902C401B301DD
:1013200020914A0230914B0240914C0250914D0263
:101330000E94030E7B018C01609350027093510256
:101340008093520290935302C201B101A60195010C
:101350000E94340EA80197010E94340E7B018C017B
:1013600060935C0270935D0280935E0290935F02D3
:10137000609136017091370180E090E00E94191170
:101380005B016C01A80197010E94340E0E948B0C36
:101390004B017093610260936002C601B501A80120
:1013A00097010E94030E0E948B0C9B0170936B02AD
:1013B00060936A0282E082BBCE01821B930B9BBDCD
:1013C0008ABDCE018819990999BD88BD89B380323B
:1013D000B1F089B3803499F089B3803881F089B352
:1013E000803669F089B3803C51F089B3883D39F08B
:1013F00089B3803721F089B3883909F0A2C00E94EF
:1014000086020E946F0160904602709047028090B1
:10141000480290904902609138017091390180E052
:1014200090E00E9419119B01AC01C401B3010E941C
:10143000610E1B012C016093700270937102809306
:10144000720290937302C401B3012091660230913D
:10145000670240916802509169020E94340E7B013C
:101460008C0160913A0170913B0180E090E00E9414
:1014700019119B01AC01C801B7010E94610E5B010B
:101480006C01609366027093670280936802909388
:101490006902C401B30120914A0230914B0240918C
:1014A0004C0250914D020E94030E7B018C0160930F
:1014B0005002709351028093520290935302C201E2
:1014C000B101A60195010E94340EA80197010E9466
:1014D000340E7B018C0160935C0270935D028093FB
:1014E0005E0290935F02609136017091370180E057
:1014F00090E00E9419115B016C01A80197010E9404
:10150000340E0E948B0C4B01709361026093600259
:10151000C601B501A80197010E94030E0E948B0C21
:101520009B0170936B0260936A0280E882BBCE01DC
:10153000821B930B9BBD8ABDCE018819990999BD69
:1015400088BD84EC99E00197F1F77DCA1F920F9254
:101550000FB60F9211242F933F934F935F936F9386
:101560007F938F939F93AF93BF93EF93FF9320E06D
:1015700030E048EA51E605C0CA010197F1F72F5F54
:101580003F4F23303105C1F780914E0290914F02B9
:101590008832910599F189329105B0F48431910531
:1015A00069F18531910530F4009771F10A9709F0DE
:1015B0005FC02AC08E31910509F18332910589F10E
:1015C000499709F055C023C08C339105B9F08D338C
:1015D000910550F48233910589F087339105A9F183
:1015E0008D9709F045C027C08634910539F08035C4
:1015F000910551F081349105D9F531C00A96909347
:101600004F0280934E0234C084E190E0F8CF809185
:101610003401909135010196909335018093340106
:1016200027C0809136019091370101969093370140
:10163000809336011DC08091380190913901019647
:10164000909339018093380113C080913A019091B1
:101650003B01019690933B0180933A0109C0809130
:101660003C0190913D01019690933D0180933C0196
:1016700080914E0290914F020E944003FF91EF91A2
:10168000BF91AF919F918F917F916F915F914F919A
:101690003F912F910F900FBE0F901F9018951F92A2
:1016A0000F920FB60F9211242F933F934F935F9396
:1016B0006F937F938F939F93AF93BF93EF93FF931A
:1016C00020E030E048EA51E605C0CA010197F1F791
:1016D0002F5F3F4F23303105C1F780914E0290912B
:1016E0004F028233910581F183339105B8F48E3135
:1016F000910551F18F31910538F48431910521F133
:101700008931910569F527C088329105E9F08D325C
:10171000910509F18332910519F51DC081349105B8
:10172000D1F08234910538F487339105A1F08C33E0
:101730009105B1F409C08B34910569F080359105AC
:1017400029F08634910561F4059606C010924F0287
:1017500010924E0205C0059790934F0280934E025F
:1017600080914E0290914F020E944003FF91EF91B1
:10177000BF91AF919F918F917F916F915F914F91A9
:101780003F912F910F900FBE0F901F9018951F92B1
:101790000F920FB60F9211242F933F934F935F93A5
:1017A0006F937F938F939F93AF93BF93EF93FF9329
:1017B00020E030E048EA51E605C0CA010197F1F7A0
:1017C0002F5F3F4F23303105C1F780914E0290913A
:1017D0004F028832910509F454C089329105C8F44A
:1017E0008431910509F446C08531910530F40097A4
:1017F00061F10A9709F078C031C08E31910509F482
:1018000040C08332910509F448C0499709F06CC083
:101810003AC08C339105A9F18D33910558F4823388
:10182000910579F18733910509F44BC08D9709F043
:101830005BC03DC08634910521F18035910509F1E9
:101840008134910509F050C046C08091320188234F
:1018500011F0109232018AE090E00EC080913201C6
:10186000882319F481E08093320110924F02109284
:101870004E023AC080E590E090934F0280934E0272
:1018800033C00A97F9CF80913401909135010197C7
:10189000909335018093340127C080913601909157
:1018A0003701019790933701809336011DC08091D5
:1018B0003801909139010197909339018093380153
:1018C00013C080913A0190913B01019790933B01A5
:1018D00080933A0109C080913C0190913D010197AC
:1018E00090933D0180933C0180914E0290914F0274
:1018F0000E944003FF91EF91BF91AF919F918F9113
:101900007F916F915F914F913F912F910F900FBEFB
:101910000F901F901895EF92FF920F931F937B01EA
:101920008C0120E030E040E05FE40E940710882353
:101930008CF0C801B70120E030E040E05FE40E9495
:10194000030E0E94C5109B01AC0120503040404066
:10195000504806C0C801B7010E94C5109B01AC01E8
:10196000B901CA011F910F91FF90EF900895A0E077
:10197000B0E0EDEBFCE00C94AE13DC012B01FA01BE
:101980009C91923008F439C1EB018881823008F4CF
:1019900033C1943069F4843009F02FC111969C91C1
:1019A00011978981981709F428C1AEE3B1E025C1E8
:1019B000843009F421C18230A9F4923009F01DC1AC
:1019C0009A01AD0188E0EA010990AE01E9010992AE
:1019D0009E018150C1F7E201898111969C91892372
:1019E000818308C1923009F407C112962D903C9072
:1019F0001397EB018A819B811496AD90BD90CD9099
:101A0000DC901797EC80FD800E811F819101281BCF
:101A1000390BB90137FF04C066277727621B730BA8
:101A2000603271050CF061C0121613066CF53701B7
:101A30004801062E04C096948794779467940A947C
:101A4000D2F721E030E040E050E004C0220F331F25
:101A5000441F551F6A95D2F72150304040405040F6
:101A60002E213F21402351232115310541055105E8
:101A700021F021E030E040E050E079018A01E628E1
:101A8000F728082919293CC0232BD1F1260E371E2F
:101A900035014601062E04C0969487947794679486
:101AA0000A94D2F721E030E040E050E004C0220F79
:101AB000331F441F551F6A95D2F7215030404040D4
:101AC00050402A213B214C215D2121153105410542
:101AD000510521F021E030E040E050E059016A0179
:101AE000A628B728C828D9280BC0821593052CF042
:101AF0001C01AA24BB24650103C0EE24FF24870136
:101B000011969C91D20111968C91981709F445C0B9
:101B1000992339F0A80197012A193B094C095D095D
:101B200006C0A60195012E193F09400B510B57FD28
:101B300008C01182338222822483358346835783EF
:101B40001DC081E081833382228288279927DC01AE
:101B5000821B930BA40BB50B84839583A683B78359
:101B60000DC0220F331F441F551F24833583468326
:101B70005783828193810197938382832481358166
:101B800046815781DA01C9010197A109B1098F5F27
:101B90009F4FAF4FBF4328F30BC091833382228204
:101BA000EA0CFB1C0C1D1D1DE482F58206831783C5
:101BB00083E08083248135814681578157FF1AC095
:101BC000C901AA2797FDA095BA2F81709070A070C7
:101BD000B0705695479537952795822B932BA42B5C
:101BE000B52B84839583A683B783828193810196E5
:101BF00093838283DF0101C0D201CD01CDB7DEB76F
:101C0000E2E10C94CA13A0E2B0E0E9E0FEE00C943B
:101C1000BA1369837A838B839C832D833E834F839E
:101C20005887E9E0EE2EF12CEC0EFD1ECE01019658
:101C3000B7010E94B6128E010F5E1F4FCE010596AE
:101C4000B8010E94B6128A8991E089278A8BC70160
:101C5000B801AE01475E5F4F0E94B70C0E94E111D0
:101C6000A096E6E00C94D613A0E2B0E0EAE3FEE032
:101C70000C94BA1369837A838B839C832D833E8370
:101C80004F835887F9E0EF2EF12CEC0EFD1ECE01AC
:101C90000196B7010E94B6128E010F5E1F4FCE0152
:101CA0000596B8010E94B612C701B801AE01475EA1
:101CB0005F4F0E94B70C0E94E111A096E6E00C94E1
:101CC000D613A0E2B0E0E7E6FEE00C94AE13698321
:101CD0007A838B839C832D833E834F835887CE01E9
:101CE0000196BE01675F7F4F0E94B612CE01059636
:101CF000BE016F5E7F4F0E94B6129985923088F0C8
:101D000089898230C8F0943019F4823051F404C0CB
:101D1000843029F4923081F48EE391E0C6C0923091
:101D200049F420E09A858A89981321E02A87CE0118
:101D30000996BBC0823049F420E09A858A899813BD
:101D400021E02A8BCE014196B0C02D843E844F8481
:101D500058886D887E888F88988CEE24FF248701B0
:101D6000AA24BB24650140E050E060E070E0E0E0C0
:101D7000F0E0C10181709070892BE9F0E60CF71C4E
:101D8000081D191D9A01AB012A0D3B1D4C1D5D1D3F
:101D900080E090E0A0E0B0E0E614F7040805190543
:101DA00020F481E090E0A0E0B0E0BA01A901480F82
:101DB000591F6A1F7B1FAA0CBB1CCC1CDD1C97FE85
:101DC00008C081E090E0A0E0B0E0A82AB92ACA2AC1
:101DD000DB2A3196E032F10549F0660C771C881C4D
:101DE000991C5694479437942794C3CFFA85EA896F
:101DF0002B893C898B859C85280F391F2E5F3F4F8F
:101E000017C0CA0181709070892B61F016950795F3
:101E1000F794E79480E090E0A0E0B0E8E82AF92A9F
:101E20000A2B1B2B76956795579547952F5F3F4F4C
:101E300077FDE7CF0CC0440F551F661F771F17FDB6
:101E40004160EE0CFF1C001F111F2150304040303C
:101E500090E0590790E0690790E4790760F32B8FD1
:101E60003C8FDB01CA018F779070A070B070803416
:101E70009105A105B10561F447FD0AC0E114F10423
:101E80000105110529F0405C5F4F6F4F7F4F40788F
:101E90001A8EFE1711F081E08A8F4D8F5E8F6F8F43
:101EA00078A383E0898FCE0149960E94E111A09624
:101EB000E2E10C94CA13A8E1B0E0E1E6FFE00C9483
:101EC000B61369837A838B839C832D833E834F83F0
:101ED0005887B9E0EB2EF12CEC0EFD1ECE010196D9
:101EE000B7010E94B6128E010F5E1F4FCE010596FC
:101EF000B8010E94B6122985223008F47EC03989C3
:101F0000323010F4B8017CC08A859A8989278A8783
:101F1000243011F0223031F4231709F06EC06EE343
:101F200071E06EC0343039F41D861E861F86188A13
:101F30001C861B8604C0323021F484E08987B701F7
:101F40005FC02B853C858B899C89281B390B3C877E
:101F50002B87ED84FE840F851889AD88BE88CF88D5
:101F6000D88CEA14FB040C051D0540F4EE0CFF1C94
:101F7000001F111F215030403C872B8720E030E0AC
:101F800040E050E080E090E0A0E0B0E460E070E08D
:101F9000EA14FB040C051D0540F0282B392B4A2BB5
:101FA0005B2BEA18FB080C091D09B695A7959795B8
:101FB0008795EE0CFF1C001F111F6F5F7F4F6F3165
:101FC000710531F7DA01C9018F779070A070B07098
:101FD00080349105A105B10561F427FD0AC0E11423
:101FE000F1040105110529F0205C3F4F4F4F5F4F71
:101FF00020782D873E874F87588BBE01675F7F4FC4
:10200000CB010E94E1116896EAE00C94D213A8E19A
:10201000B0E0EDE0F0E10C94BA1369837A838B832E
:102020009C832D833E834F83588789E0E82EF12CD3
:10203000EC0EFD1ECE010196B7010E94B6128E0174
:102040000F5E1F4FCE010596B8010E94B61289851A
:10205000823040F08989823028F0C701B8010E949F
:102060002E1301C08FEF6896E6E00C94D613A8E11A
:10207000B0E0EDE3F0E10C94BA1369837A838B83CB
:102080009C832D833E834F83588789E0E82EF12C73
:10209000EC0EFD1ECE010196B7010E94B6128E0114
:1020A0000F5E1F4FCE010596B8010E94B6128985BA
:1020B000823040F08989823028F0C701B8010E943F
:1020C0002E1301C081E06896E6E00C94D613A8E0D8
:1020D000B0E0EDE6F0E10C94B7139B01AC0183E0B6
:1020E0008983DA01C9018827B7FD83959927AA2733
:1020F000BB27B82E211531054105510519F482E0A1
:1021000089833AC08823A9F0203080E0380780E036
:10211000480780E8580729F460E070E080E09FEC11
:1021200030C0EE24FF248701E21AF30A040B150BDA
:1021300002C079018A018EE1C82ED12CDC82CB82CB
:10214000ED82FE820F831887C801B7010E949211A9
:1021500001971816190684F4082E04C0EE0CFF1C13
:10216000001F111F0A94D2F7ED82FE820F83188799
:10217000C81AD90ADC82CB82BA82CE0101960E94AB
:10218000E1112896E9E00C94D313ACE0B0E0EBEC5D
:10219000F0E10C94BE1369837A838B839C83CE0118
:1021A0000196BE016B5F7F4F0E94B6128D81823017
:1021B00061F1823050F1843021F48E81882351F115
:1021C0002EC02F81388537FD20C06E812F3131051B
:1021D0001CF06623F9F023C08EE190E0821B930B84
:1021E00029853A854B855C8504C05695479537957A
:1021F00027958A95D2F76623B1F050954095309592
:1022000021953F4F4F4F5F4F0EC020E030E040E040
:1022100050E009C02FEF3FEF4FEF5FE704C020E031
:1022200030E040E050E8B901CA012C96E2E00C949D
:10223000DA13A8E0B0E0EFE1F1E10C94B6137B0112
:102240008C01611571058105910519F482E089837E
:1022500060C083E089838EE1C82ED12CDC82CB82E2
:10226000ED82FE820F831887C801B7010E94921188
:10227000FC013197F7FF3BC0222733272E1B3F0B72
:1022800057016801022E04C0D694C794B794A7944E
:102290000A94D2F740E050E060E070E081E090E026
:1022A000A0E0B0E004C0880F991FAA1FBB1F2A95A9
:1022B000D2F70197A109B1098E219F21A023B12353
:1022C0000097A105B10521F041E050E060E070E029
:1022D0004A295B296C297D294D835E836F8378872A
:1022E0008EE190E08E1B9F0B9C838B8312C03097F6
:1022F00081F00E2E04C0EE0CFF1C001F111F0A946B
:10230000D2F7ED82FE820F831887CE1ADF0ADC82B5
:10231000CB821A82CE0101960E94E1112896EAE052
:102320000C94D213EF92FF920F931F937B018C01B9
:1023300080E0E81680E0F80681E0080780E01807F2
:1023400088F48FEFE816F1040105110531F028F04B
:1023500088E090E0A0E0B0E017C080E090E0A0E06E
:10236000B0E012C080E0E81680E0F80680E00807E0
:1023700081E0180728F088E190E0A0E0B0E004C018
:1023800080E190E0A0E0B0E020E230E040E050E00A
:10239000281B390B4A0B5B0B04C016950795F79465
:1023A000E7948A95D2F7F701EA5BFE4F8081281BFC
:1023B000310941095109C9011F910F91FF90EF9017
:1023C0000895DF92EF92FF920F931F93FC01E48038
:1023D000F58006811781D1808081823048F480E0C9
:1023E00090E0A0E1B0E0E82AF92A0A2B1B2BA5C057
:1023F000843009F49FC0823021F4EE24FF24870149
:1024000005C0E114F1040105110519F4E0E0F0E064
:1024100096C0628173819FEF623879070CF05BC0D0
:1024200022E83FEF261B370B2A3131052CF020E044
:1024300030E040E050E02AC0B801A701022E04C0FD
:1024400076956795579547950A94D2F781E090E085
:10245000A0E0B0E004C0880F991FAA1FBB1F2A95F7
:10246000D2F70197A109B1098E219F21A023B123A1
:102470000097A105B10521F081E090E0A0E0B0E077
:102480009A01AB01282B392B4A2B5B2BDA01C901AE
:102490008F779070A070B07080349105A105B10560
:1024A00039F427FF09C0205C3F4F4F4F5F4F04C0F6
:1024B000215C3F4F4F4F5F4FE0E0F0E02030A0E065
:1024C0003A07A0E04A07A0E45A0710F0E1E0F0E084
:1024D00079018A0127C06038710564F5FB01E15874
:1024E000FF4FD801C7018F779070A070B070803413
:1024F0009105A105B10539F4E7FE0DC080E490E037
:10250000A0E0B0E004C08FE390E0A0E0B0E0E80E0F
:10251000F91E0A1F1B1F17FF05C016950795F79494
:10252000E794319687E016950795F794E7948A9596
:10253000D1F705C0EE24FF248701EFEFF0E06E2F06
:10254000679566276795902F9F77D794DD24D7945A
:102550008E2F8695492F462B582F5D29B701CA012A
:102560001F910F91FF90EF90DF900895FC01DB0128
:10257000408151812281622F6F7770E0221F2227D4
:10258000221F9381892F880F822B282F30E0991FDB
:102590009927991F11969C93119721153105A9F53B
:1025A000411551056105710511F482E037C082E8DB
:1025B0009FEF13969C938E9312979A01AB0167E05D
:1025C000220F331F441F551F6A95D1F783E08C9368
:1025D0000DC0220F331F441F551F12968D919C91E1
:1025E0001397019713969C938E931297203080E057
:1025F000380780E0480780E4580758F314962D9375
:102600003D934D935C93179708952F3F310579F4CF
:10261000411551056105710519F484E08C93089505
:1026200064FF03C081E08C9312C01C9210C02F572E
:10263000304013963C932E93129783E08C9387E05F
:10264000440F551F661F771F8A95D1F77064149643
:102650004D935D936D937C93179708951F93DC01C1
:10266000FB019C91923008F447C08081823008F4CD
:1026700043C0943051F411961C91843099F58181B6
:10268000682F70E0611B71093FC0843021F09230E7
:1026900031F48230B9F18181882389F12DC01196FE
:1026A0001C9111978230F1F081811817D9F412969C
:1026B0002D913C911397828193818217930794F017
:1026C00028173907BCF014968D919D910D90BC91FF
:1026D000A02D2481358146815781281739074A0763
:1026E0005B0718F4112341F00AC082179307A4076F
:1026F000B50740F4112319F061E070E005C06FEFF9
:102700007FEF02C060E070E0CB011F91089597FB5E
:10271000092E07260AD077FD04D00CD006D0002061
:102720001AF4709561957F4F0895F6F7909581950D
:102730009F4F0895AA1BBB1B51E107C0AA1FBB1FD7
:10274000A617B70710F0A61BB70B881F991F5A953D
:10275000A9F780959095BC01CD0108952F923F92E5
:102760004F925F926F927F928F929F92AF92BF92A1
:10277000CF92DF92EF92FF920F931F93CF93DF934D
:10278000CDB7DEB7CA1BDB0B0FB6F894DEBF0FBEAA
:10279000CDBF09942A88398848885F846E847D84F7
:1027A0008C849B84AA84B984C884DF80EE80FD80F9
:1027B0000C811B81AA81B981CE0FD11D0FB6F8946F
:0E27C000DEBF0FBECDBFED010895F894FFCF30
:1027CE004C6F7264206F66746865204C696E657319
:1027DE000053746172740053657474696E6773008C
:1027EE00506175736500312E204D617820537065F0
:1027FE00656400322E2042617365205370656564F6
:10280E0000332E2050726F706F74696F6E616C00A2
:10281E00342E20496E74656772616C00352E20442B
:10282E0065726976617469766500372E2041646A37
:10283E007573742053656E736F7200362E20446F5D
:10284E006E65004D61782053706565643A200042D4
:10285E006173652053706565643A200050726F7025
:10286E006F74696F6E616C3A2000496E74656772A1
:10287E00616C3A2000446572697661746976653AD6
:10288E00200053656E736F727300244E6177617A08
:10289E0024000172FA00AF001E00040008000000C0
:1028AE000000000000000001020203030303040401
:1028BE0004040404040405050505050505050505C0
:1028CE0005050505050506060606060606060606A0
:1028DE00060606060606060606060606060606068A
:1028EE000606060606060707070707070707070770
:1028FE00070707070707070707070707070707075A
:10290E000707070707070707070707070707070749
:10291E000707070707070707070707070707070739
:10292E00070707070707080808080808080808081F
:10293E000808080808080808080808080808080809
:10294E0008080808080808080808080808080808F9
:10295E0008080808080808080808080808080808E9
:10296E0008080808080808080808080808080808D9
:10297E0008080808080808080808080808080808C9
:10298E0008080808080808080808080808080808B9
:10299E0008080808080808080808080808080808A9
:0629AE00080808080808F3
:00000001FF
