:100000000C942A000C9434000C9434000C943400AA
:100010000C9434000C9434000C9434000C94340090
:100020000C9434000C9434000C9434000C94340080
:100030000C9434000C9434000C9434000C94340070
:100040000C9434000C9434000C9434000C94340060
:100050000C94340011241FBECFE5D4E0DEBFCDBF29
:100060000E94CF000C943B010C94000088E187B9FA
:100070008BEE86B985B190E0089588E087B98BEE64
:1000800086B985B190E0089588E087B98BEE86B98E
:1000900085B190E0089588E387B98BEE86B985B184
:1000A00090E0089588E587B98BEE86B985B190E038
:1000B000089588E787B98BEE86B985B190E00895F9
:1000C00088ED87B98BEE86B985B190E008958CE113
:1000D00087B98BEE86B985B190E008958AE187B93A
:1000E0008BEE86B985B190E008958EE187B98BEEED
:1000F00086B985B190E008958BE187B98BEE86B91A
:1001000085B190E008958EE787B98BEE86B985B109
:1001100090E0089580E287B98BEE86B985B190E0D2
:10012000089580E487B98BEE86B985B190E0089593
:1001300080E687B98BEE86B985B190E0089580ECB2
:1001400087B98BEE86B985B190E0089584E087B9D0
:100150008BEE86B985B190E0089582E087B98BEE89
:1001600086B985B190E0089586E087B98BEE86B9AF
:1001700085B190E0089517B88BEE86B985B190E00F
:1001800008958CE387B98BEE86B985B190E0089528
:100190008AE587B98BEE86B985B190E008958F9294
:1001A0009F92AF92BF92CF92DF92EF92FF920F9306
:1001B0001F931ABA8FEF87BBE8E19E2E8BEE98E073
:1001C00078E3A72E68E5B62E58E7C52E48EDD42E65
:1001D0003CE1E32E2AE1F22E0EE11BE1BEE7A0E2B4
:1001E000F0E4E0E670EC64E052E046E03CE32AE54F
:1001F00097B886B985B097B986B985B097B986B9E9
:1002000085B0A7B886B985B0B7B886B985B0C7B884
:1002100086B985B0D7B886B985B0E7B886B985B054
:10022000F7B886B985B007B986B985B017B986B968
:1002300085B0B7B986B985B0A7B986B985B0F7B921
:1002400086B985B0E7B986B985B077B986B985B082
:1002500067B986B985B057B986B985B047B986B947
:1002600085B017B886B985B037B986B985B027B9D2
:0A02700086B985B0BDCFF894FFCF2A
:00000001FF
