:100000000C942A000C9434000C9434000C943400AA
:100010000C9434000C9434000C9434000C94340090
:100020000C9434000C9434000C9434000C94340080
:100030000C9434000C9434000C9434000C94340070
:100040000C9434000C9434000C9434000C94340060
:100050000C94340011241FBECFE5D4E0DEBFCDBF29
:100060000E9405010C945A010C9400009FB5926AFD
:100070009FBD9EB592619EBD90E097BD86BD1BBCA5
:100080001ABC19BC18BC089589B3883131F089B302
:10009000883019F089B3883041F482E882BB8FEF51
:1000A00090E09BBD8ABD99BD88BD089589B380331A
:1000B000C1F089B38833A9F089B3883591F089B349
:1000C000883779F089B3883D61F089B3803749F08A
:1000D00089B3883931F089B3883F19F089B3803CFE
:1000E00051F480E882BB86E990E09BBD8ABD8AEF2F
:1000F00090E099BD88BD089589B38C30C1F089B373
:100100008C31A9F089B38A3191F089B38E3179F0BD
:1001100089B38B3161F089B38E3049F089B389316D
:1001200031F089B38F3119F089B3833051F482E013
:1001300082BB8AEF90E09BBD8ABD86E990E099BDC5
:1001400088BD089589B38F3F29F412BA1BBC1ABC2D
:1001500019BC18BC089589B38C3331F089B38A3542
:1001600019F089B3893941F482E882BB8AEF90E0C3
:100170009BBD8ABD99BD88BD089589B3843061F067
:1001800089B3823049F089B3813031F089B3863048
:1001900019F089B3833071F482E482BB8AEF90E076
:1001A0009BBD8ABD86E990E099BD88BD80E593EC52
:1001B0000197F1F7089589B3803261F089B38034F3
:1001C00049F089B3803831F089B3803619F089B3AA
:1001D000803C71F481E882BB86E990E09BBD8ABDDA
:1001E0008AEF90E099BD88BD80E593EC0197F1F727
:1001F000089589B3882341F481E482BB8AEF90E0BB
:100200009BBD8ABD99BD88BD0895EF92FF920F9363
:100210001F93CF93DF931ABA19BA8FEF81BB8FB5B3
:10022000826A8FBD8EB582618EBD8FEF90E097BDE3
:1002300086BD1BBC1ABC19BC18BC92E8F92E0FEF86
:1002400010E0CAEFD0E081E4E82E89B3883131F0C4
:1002500089B3883019F089B3883029F4F2BA1BBD0C
:100260000ABD19BD08BD0E9456000E947C000E9474
:10027000DB000E94BD0089B38C3331F089B38A352D
:1002800019F089B3893929F4F2BADBBDCABDD9BDE9
:10029000C8BD89B3882329F4E2BADBBDCABDD9BD84
:1002A000C8BD89B38F3F89F612BA1BBC1ABC19BCF2
:0802B00018BCCBCFF894FFCF7E
:00000001FF
