:100000000C942A000C9434000C9434000C943400AA
:100010000C9434000C9434000C9434000C94340090
:100020000C9434000C9434000C9434000C94340080
:100030000C9434000C9434000C9434000C94340070
:100040000C9434000C9434000C9434000C94340060
:100050000C94340011241FBECFE5D4E0DEBFCDBF29
:100060000E9436000C946C000C9400008FEF8ABB49
:1000700017BA79E929E130E06FEF5AEA4CEC86B320
:10008000813049F47BBB80E197E2F9013197F1F7C8
:100090000197D9F7F4CF1BBA80E197E2F9013197C4
:1000A000F1F70197D9F76BBB80E197E2F90131973E
:1000B000F1F70197D9F75BBB80E197E2F90131973E
:1000C000F1F70197D9F74BBB80E197E2F90131973E
:0C00D000F1F70197D9F7D3CFF894FFCFD8
:00000001FF
