:100000000C942A000C9434000C9434000C943400AA
:100010000C9434000C9434000C9434000C94340090
:100020000C9434000C9434000C9434000C94340080
:100030000C9434000C9434000C9434000C94340070
:100040000C9434000C9434000C9434000C94340060
:100050000C94340011241FBECFE5D4E0DEBFCDBF29
:100060000E9436000C9459000C9400008FEF8ABB5C
:10007000FFE328EA31E6EFE17FE067E053E041E0AB
:10008000FBBBC9010197F1F7EBBBC9010197F1F780
:100090007BBBC9010197F1F76BBBC9010197F1F770
:1000A0005BBBC9010197F1F74BBBC9010197F1F7A0
:0600B000E7CFF894FFCF3A
:00000001FF
