:100000000C942A000C9472070C9451060C9447002F
:100010000C9447000C9447000C9447000C94470044
:100020000C9447000C9447000C9447000C94470034
:100030000C9447000C9447000C9447000C94470024
:100040000C9447000C9447000C94FA060C9447005B
:100050000C94470011241FBECFE5D4E0DEBFCDBF16
:1000600012E0A0E6B0E0E4EEFFE102C005900D92E0
:10007000A434B107D9F712E0A4E4B2E001C01D92A4
:10008000A237B107E1F70E94CB040C94F00F0C9457
:10009000000084B3807F84BBAD9AAC9881E08A95E0
:1000A000F1F721E0AE9A822F8A95F1F783B382951A
:1000B000807F922F9A95F1F7AE98922F9A95F1F74B
:1000C000AE9A922F9A95F1F793B3922F9A95F1F7F2
:1000D000AE98922F9A95F1F787FDE4CFAD9884B34F
:1000E0008F6084BB0895382F662311F4AC9801C04B
:1000F000AC9A21E0822F8A95F1F7AE9A85B3932FBF
:1001000092959F70807F982B95BB822F8A95F1F7EF
:10011000AE98822F8A95F1F7AE9A85B33F70807FB3
:10012000832B85BB822F8A95F1F7AE982A95F1F73C
:100130000E94490008951F93182F8CE49DE10197B8
:10014000F1F784B38F6084BBA69AA49AA59A85B36D
:10015000807F85BBAE98AD98AC9881E0982F9A953A
:10016000F1F7AE9AA99A982F9A95F1F7AE988A95D9
:10017000F1F70E944900812F8C6060E00E947300BB
:1001800088E260E00E9473001F910895CF93DF938F
:10019000EC0104C061E00E947300219688818823ED
:1001A000C9F7DF91CF910895EF92FF920F931F93BC
:1001B000DF93CF9300D000D00F92CDB7DEB79C0174
:1001C0008B01FE01319685E0DF011D928A95E9F7EA
:1001D000FE0135960DC0C9016AE070E00E94920FE1
:1001E0008083C9016AE070E00E94920F9B01319701
:1001F0002115310581F7BFEF0F3F1B0779F420E090
:1002000030E0AE014F5F5F4F02C02F5F3F4FFA01FA
:10021000E20FF31F80818823C1F304C025E030E0A2
:10022000201B310B7E010894E11CF11CE20EF31E31
:10023000890109C0F70181917F01805D61E00E9421
:1002400073000F5F1F4F05301105A4F30F900F903F
:100250000F900F900F90CF91DF911F910F91FF9012
:10026000EF900895883230F461118064806860E016
:100270000E9473000895A79AAF988D9A8E9A8F9ACC
:100280008C9A889A899A9598969897989498909825
:100290009198949A959A8A988B98BA981ABA1BBA98
:1002A000089581EA8FBD8AE08EBD089585B78B7F62
:1002B00085BF85B7877F85BF85B78E7F85BF85B7AB
:1002C0008D7F85BF85B78F7B85BF8BB780648BBFE4
:1002D0008BB780688BBF8BB780628BBF08952F92DE
:1002E0003F924F925F926F927F928F929F92AF92C6
:1002F000BF92CF92DF92EF92FF920F931F93DF9303
:10030000CF9300D000D0CDB7DEB781E090E09093DE
:1003100055028093540290936302809362029093FB
:100320006B0280936A0290935702809356029093D7
:1003300061028093600290935302809352029093E3
:100340006D0280936C029093590280935802CF996A
:1003500007C08CE68093310110925502109254022E
:10036000CE9904C01092630210926202CD9904C02B
:1003700010926B0210926A02CC9904C0109257023C
:1003800010925602CB9904C0109261021092600242
:10039000CA9904C01092530210925202C99904C023
:1003A00010926D0210926C02C89907C082E7809388
:1003B000310110925902109258028091440290919A
:1003C0004502A0914602B091470280934802909363
:1003D0004902A0934A02B0934B028091540290913B
:1003E00055029A838983E0906A02F0906B02209014
:1003F00062023090630280906002909061020091EE
:1004000056021091570260906C0270906D024090FD
:10041000520250905302E0915802F0915902FC832D
:10042000EB83B701660F771F6E0D7F1D9101220FC1
:10043000331F620F731F680F791F9401220F331F40
:10044000220F331F280D391D620F731F9801220FD1
:10045000331F220F331F620F731F930153E0220FCC
:10046000331F5A95E1F726193709620F731F92015E
:10047000220F331F240D351D220F331F620F731FF0
:100480009F0183E0220F331F8A95E1F7620F731FEC
:1004900080E090E00E94240D5B016C0189819A81CB
:1004A000E80EF91EE20CF31CE80CF91CE00EF11E3C
:1004B000E60CF71CE40CF51CEB81FC81EE0EFF1E34
:1004C00000E010E0C801B7010E94240D9B01AC01BF
:1004D000C601B5010E94060B20E030E040E950E47F
:1004E0000E94AE09609344027093450280934602D5
:1004F000909347020F900F900F900F90CF91DF9144
:100500001F910F91FF90EF90DF90CF90BF90AF9031
:100510009F908F907F906F905F904F903F902F9023
:100520000895959A9698979A0895949A9098919A82
:100530000895959A969A97980895949A909A919872
:100540000895959A969A979A0895949A909A919A5E
:100550000895CF92DF92EF92FF920F931F93CF9364
:10056000DF9320E030E040E251E40E940C0A7B017E
:100570008C01C0E0D0E068EAC62E61E6D62E04C049
:10058000C6010197F1F72196BE01882777FD809576
:10059000982F0E94720CA80197010E94420C87FDBF
:1005A000EFCFDF91CF911F910F91FF90EF90DF90F0
:1005B000CF900895AF9A0895AF98089580E061E0D4
:1005C0000E943201809154029091550261E070E0E6
:1005D0000E94D40082E061E00E94320180916202B8
:1005E0009091630261E070E00E94D40084E061E0D9
:1005F0000E94320180916A0290916B0261E070E08A
:100600000E94D40086E061E00E943201809156028F
:100610009091570261E070E00E94D40089E061E0AF
:100620000E943201809160029091610261E070E06D
:100630000E94D4008BE061E00E943201809152025E
:100640009091530261E070E00E94D4008DE061E07F
:100650000E94320180916C0290916D0261E070E025
:100660000E94D4008FE061E00E9432018091580224
:100670009091590261E070E00E94D40008958D329B
:10068000910509F42AC18E329105F4F4893191055E
:1006900009F4EFC08A3191055CF48A30910509F4C0
:1006A00046C08431910509F45DC0892B69F1089534
:1006B0008332910509F4F6C08832910509F478C0B7
:1006C0004E9709F067C161C08134910509F437C1C3
:1006D0008234910564F48733910509F417C18C3392
:1006E000910509F48BC0C29709F054C174C08B34D2
:1006F000910509F441C18035910509F4A5C08634FE
:10070000910509F047C18DC081E060E00E9473004F
:1007100080E060E00E94320180E690E00E94C60026
:1007200080E061E00E94320181E790E012C081E048
:1007300060E00E94730080E060E00E94320180E689
:1007400090E00E94C60080E061E00E94320180E8F3
:1007500090E00E94C60088E061E00E94320187E7D5
:1007600090E084C081E060E00E94730080E060E07F
:100770000E94320187E790E00E94C60080E061E0BD
:100780000E94320186E890E071C081E060E00E9442
:10079000730080E060E00E94320187E790E00E94F1
:1007A000C60080E061E00E94320183E990E05EC013
:1007B00081E060E00E94730080E060E00E9432010E
:1007C00087E790E00E94C60080E061E00E9432016D
:1007D00081EA90E04BC081E060E00E94730080E01D
:1007E00060E00E94320187E790E00E94C60080E04E
:1007F00061E00E94320180EB90E038C081E060E06F
:100800000E94730080E060E00E94320187E790E080
:100810000E94C60080E061E00E9432018CEB90E013
:1008200025C081E060E00E94730080E060E00E94EB
:10083000320187E790E00E94C60080E061E00E94FC
:1008400032018AEC90E012C081E060E00E94730007
:1008500080E060E00E94320187E790E00E94C600DD
:1008600080E061E00E9432018BED90E00E94C600C2
:10087000089581E060E00E94730080E060E00E94E3
:10088000320187E790E00E94C60080E061E00E94AC
:10089000320183EE90E00E94C60080913201909177
:1008A000330118C081E060E00E94730080E060E0E6
:1008B0000E94320187E790E00E94C60080E061E07C
:1008C0000E9432018FEE90E00E94C60080913401B8
:1008D0009091350163E070E04CC081E060E00E94DF
:1008E000730080E060E00E94320187E790E00E94A0
:1008F000C60080E061E00E9432018CEF90E00E942F
:10090000C600809136019091370131C081E060E0EE
:100910000E94730080E060E00E94320187E790E06F
:100920000E94C60080E061E00E9432018AE091E00E
:100930000E94C600809138019091390118C081E071
:1009400060E00E94730080E060E00E94320187E76F
:1009500090E00E94C60080E061E00E94320185E1E3
:1009600091E00E94C60080913A0190913B0162E0C3
:1009700070E00E94D400089581E060E00E9473005E
:1009800080E060E00E94320182E291E00E94C600B5
:100990000E94DE0208952F923F924F925F926F92D3
:1009A0007F928F929F92AF92BF92CF92DF92EF92FF
:1009B000FF920F931F93CF93DF930E943B010E94FE
:1009C000560181EA8FBD8AE08EBD80E00E949B00C7
:1009D00081E060E00E9473007894AF9A81E060E06B
:1009E0000E94730080E060E00E94320180E690E0A7
:1009F0000E94C60020E030E048EA51E605C0CA0186
:100A00000197F1F72F5F3F4F2A303105C1F783E09F
:100A100061E00E9432018AE291E00E94C60020E07B
:100A200030E048EA51E605C0CA010197F1F72F5FAF
:100A30003F4F2A303105C1F780E090E00E943F032C
:100A400080913001882309F027C10E946F018091B5
:100A50006202909163022091540230915502820FFC
:100A6000931F20916A0230916B02820F931F209195
:100A7000560230915702820F931F209160023091ED
:100A80006102820F931F2091520230915302820F14
:100A9000931F20916C0230916D02820F931F209161
:100AA000580230915902820F931F892BA1F4809133
:100AB0003101823719F08C3609F0EEC0949A909A81
:100AC0009198959A969A97988FEF90E09BBD8ABDE2
:100AD00099BD88BDE1C0209044023090450240900D
:100AE000460250904702609136017091370180E0D4
:100AF00090E00E94240D9B01AC01C201B1010E9453
:100B00000C0A3B014C0160936E0270936F0280935C
:100B1000700290937102C201B10120916402309180
:100B2000650240916602509167020E94DF097B01D5
:100B30008C01609138017091390180E090E00E9451
:100B4000240D9B01AC01C801B7010E940C0A5B0196
:100B50006C016093640270936502809366029093C7
:100B60006702C201B10120914802309149024091CF
:100B70004A0250914B020E94AE097B018C016093A6
:100B80004E0270934F028093500290935102C40121
:100B9000B301A60195010E94DF09A80197010E94F7
:100BA000DF097B018C0160935A0270935B02809392
:100BB0005C0290935D02609134017091350180E098
:100BC00090E00E94240D5B016C01A80197010E9436
:100BD000DF090E943608EB0170935F0260935E02AA
:100BE000C601B501A80197010E94AE090E9436080E
:100BF00070936902609368026F3F710539F030F0BD
:100C00008FEF90E09093690280936802CF3FD10507
:100C100039F030F08FEF90E090935F0280935E02A6
:100C200080916802909169029BBD8ABD80915E02AD
:100C300090915F0299BD88BDC201B10120E030E012
:100C400040E050E00E94420C882334F4959A969A32
:100C5000979A949A9098919AC201B10120E030E05D
:100C600040E050E00E94E20B181634F4959A969AF0
:100C70009798949A909A919AC201B10120E030E03D
:100C800040E050E00E94B20B882331F4959A969A86
:100C90009798949A9098919A84EC99E00197F1F73B
:100CA000CFCE1F920F920FB60F9211242F933F9326
:100CB0004F935F936F937F938F939F93AF93BF9364
:100CC000EF93FF9320E030E048EA51E605C0CA0107
:100CD0000197F1F72F5F3F4F23303105C1F7809126
:100CE0004C0290914D028832910599F1893291051B
:100CF000B0F48431910569F18531910530F40097A4
:100D000071F10A9709F05FC02AC08E31910509F18F
:100D10008332910589F1499709F055C023C08C337E
:100D20009105B9F08D33910550F48233910589F026
:100D300087339105A9F18D9709F045C027C0863406
:100D4000910539F08035910551F081349105D9F53F
:100D500031C00A9690934D0280934C0234C084E1D6
:100D600090E0F8CF809132019091330101969093F9
:100D700033018093320127C0809134019091350175
:100D8000019690933501809334011DC08091360106
:100D9000909137010196909337018093360113C0EB
:100DA0008091380190913901019690933901809397
:100DB000380109C080913A0190913B0101969093CE
:100DC0003B0180933A0180914C0290914D020E9428
:100DD0003F03FF91EF91BF91AF919F918F917F91D1
:100DE0006F915F914F913F912F910F900FBE0F9098
:100DF0001F9018951F920F920FB60F9211242F93E8
:100E00003F934F935F936F937F938F939F93AF9392
:100E1000BF93EF93FF9320E030E048EA51E605C02E
:100E2000CA010197F1F72F5F3F4F23303105C1F71A
:100E300080914C0290914D028233910581F1833370
:100E40009105B8F48E31910551F18F31910538F447
:100E50008431910521F18931910569F527C08832E6
:100E60009105E9F08D32910509F18332910519F56B
:100E70001DC081349105D1F08234910538F4873357
:100E80009105A1F08C339105B1F409C08B34910523
:100E900069F08035910529F08634910561F4059655
:100EA00006C010924D0210924C0205C00597909317
:100EB0004D0280934C0280914C0290914D020E9411
:100EC0003F03FF91EF91BF91AF919F918F917F91E0
:100ED0006F915F914F913F912F910F900FBE0F90A7
:100EE0001F9018951F920F920FB60F9211242F93F7
:100EF0003F934F935F936F937F938F939F93AF93A2
:100F0000BF93EF93FF9320E030E048EA51E605C03D
:100F1000CA010197F1F72F5F3F4F23303105C1F729
:100F200080914C0290914D028832910509F454C091
:100F300089329105C8F48431910509F446C08531A0
:100F4000910530F4009761F10A9709F078C031C03B
:100F50008E31910509F440C08332910509F448C0EF
:100F6000499709F06CC03AC08C339105A9F18D33D3
:100F7000910558F48233910579F18733910509F48D
:100F80004BC08D9709F05BC03DC08634910521F1BF
:100F90008035910509F18134910509F050C046C0B2
:100FA00080913001882311F0109230018AE090E0A6
:100FB0000EC080913001882319F481E080933001C4
:100FC00010924D0210924C023AC080E590E090934E
:100FD0004D0280934C0233C00A97F9CF80913201C1
:100FE000909133010197909333018093320127C090
:100FF0008091340190913501019790933501809350
:1010000034011DC080913601909137010197909372
:1010100037018093360113C08091380190913901D6
:101020000197909339018093380109C080913A016A
:1010300090913B01019790933B0180933A018091FD
:101040004C0290914D020E943F03FF91EF91BF919E
:10105000AF919F918F917F916F915F914F913F9150
:101060002F910F900FBE0F901F901895EF92FF9247
:101070000F931F937B018C0120E030E040E05FE4A0
:101080000E94120C88238CF0C801B70120E030E0E8
:1010900040E05FE40E94AE090E94D00C9B01AC01CD
:1010A000205030404040504806C0C801B7010E945F
:1010B000D00C9B01AC01B901CA011F910F91FF90A7
:1010C000EF900895A0E0B0E0E8E6F8E00C94B90FE6
:1010D000DC012B01FA019C91923008F439C1EB013B
:1010E0008881823008F433C1943069F4843009F087
:1010F0002FC111969C9111978981981709F428C1E5
:10110000ACE3B1E025C1843009F421C18230A9F4F7
:10111000923009F01DC19A01AD0188E0EA01099001
:10112000AE01E90109929E018150C1F7E201898176
:1011300011969C918923818308C1923009F407C1DB
:1011400012962D903C901397EB018A819B81149607
:10115000AD90BD90CD90DC901797EC80FD800E8116
:101160001F819101281B390BB90137FF04C0662785
:101170007727621B730B603271050CF061C0121689
:1011800013066CF537014801062E04C09694879427
:10119000779467940A94D2F721E030E040E050E081
:1011A00004C0220F331F441F551F6A95D2F72150E8
:1011B0003040404050402E213F21402351232115F3
:1011C00031054105510521F021E030E040E050E0DB
:1011D00079018A01E628F728082919293CC0232B20
:1011E000D1F1260E371E35014601062E04C0969415
:1011F0008794779467940A94D2F721E030E040E036
:1012000050E004C0220F331F441F551F6A95D2F7C8
:1012100021503040404050402A213B214C215D214B
:10122000211531054105510521F021E030E040E074
:1012300050E059016A01A628B728C828D9280BC050
:10124000821593052CF01C01AA24BB24650103C060
:10125000EE24FF24870111969C91D20111968C9166
:10126000981709F445C0992339F0A80197012A1964
:101270003B094C095D0906C0A60195012E193F09DD
:10128000400B510B57FD08C0118233822282248308
:101290003583468357831DC081E081833382228258
:1012A00088279927DC01821B930BA40BB50B848341
:1012B0009583A683B7830DC0220F331F441F551F8C
:1012C0002483358346835783828193810197938357
:1012D00082832481358146815781DA01C9010197D2
:1012E000A109B1098F5F9F4FAF4FBF4328F30BC0D8
:1012F000918333822282EA0CFB1C0C1D1D1DE482AB
:10130000F5820683178383E08083248135814681BB
:10131000578157FF1AC0C901AA2797FDA095BA2F78
:1013200081709070A070B07056954795379527954D
:10133000822B932BA42BB52B84839583A683B78311
:1013400082819381019693838283DF0101C0D20160
:10135000CD01CDB7DEB7E2E10C94D50FA0E2B0E04D
:10136000E4EBF9E00C94C50F69837A838B839C834B
:101370002D833E834F835887E9E0EE2EF12CEC0E4F
:10138000FD1ECE010196B7010E94C10E8E010F5EB7
:101390001F4FCE010596B8010E94C10E8A8991E0C7
:1013A00089278A8BC701B801AE01475E5F4F0E9453
:1013B00062080E94EC0DA096E6E00C94E10FA0E21A
:1013C000B0E0E5EEF9E00C94C50F69837A838B8376
:1013D0009C832D833E834F835887F9E0EF2EF12CB9
:1013E000EC0EFD1ECE010196B7010E94C10E8E01CA
:1013F0000F5E1F4FCE010596B8010E94C10EC701B6
:10140000B801AE01475E5F4F0E9462080E94EC0D7A
:10141000A096E6E00C94E10FA0E2B0E0E2E1FAE091
:101420000C94B90F69837A838B839C832D833E83CD
:101430004F835887CE010196BE01675F7F4F0E94A0
:10144000C10ECE010596BE016F5E7F4F0E94C10E98
:101450009985923088F089898230C8F0943019F4E7
:10146000823051F404C0843029F4923081F48CE34A
:1014700091E0C6C0923049F420E09A858A89981399
:1014800021E02A87CE010996BBC0823049F420E0D2
:101490009A858A89981321E02A8BCE014196B0C0A3
:1014A0002D843E844F8458886D887E888F88988CE0
:1014B000EE24FF248701AA24BB24650140E050E00C
:1014C00060E070E0E0E0F0E0C10181709070892B95
:1014D000E9F0E60CF71C081D191D9A01AB012A0D55
:1014E0003B1D4C1D5D1D80E090E0A0E0B0E0E614E7
:1014F000F7040805190520F481E090E0A0E0B0E0D1
:10150000BA01A901480F591F6A1F7B1FAA0CBB1CF7
:10151000CC1CDD1C97FE08C081E090E0A0E0B0E0AC
:10152000A82AB92ACA2ADB2A3196E032F10549F005
:10153000660C771C881C991C569447943794279402
:10154000C3CFFA85EA892B893C898B859C85280F36
:10155000391F2E5F3F4F17C0CA0181709070892BD1
:1015600061F016950795F794E79480E090E0A0E08D
:10157000B0E8E82AF92A0A2B1B2B76956795579530
:1015800047952F5F3F4F77FDE7CF0CC0440F551FA6
:10159000661F771F17FD4160EE0CFF1C001F111F17
:1015A00021503040403090E0590790E0690790E4C6
:1015B000790760F32B8F3C8FDB01CA018F77907026
:1015C000A070B07080349105A105B10561F447FDAC
:1015D0000AC0E114F1040105110529F0405C5F4FD8
:1015E0006F4F7F4F40781A8EFE1711F081E08A8F7F
:1015F0004D8F5E8F6F8F78A383E0898FCE014996E0
:101600000E94EC0DA096E2E10C94D50FA8E1B0E0A9
:10161000ECE0FBE00C94C10F69837A838B839C839D
:101620002D833E834F835887B9E0EB2EF12CEC0ECF
:10163000FD1ECE010196B7010E94C10E8E010F5E04
:101640001F4FCE010596B8010E94C10E2985223098
:1016500008F47EC03989323010F4B8017CC08A8524
:101660009A8989278A87243011F0223031F4231790
:1016700009F06EC06CE371E06EC0343039F41D8641
:101680001E861F86188A1C861B8604C0323021F4F1
:1016900084E08987B7015FC02B853C858B899C8955
:1016A000281B390B3C872B87ED84FE840F85188916
:1016B000AD88BE88CF88D88CEA14FB040C051D05C4
:1016C00040F4EE0CFF1C001F111F215030403C87DE
:1016D0002B8720E030E040E050E080E090E0A0E0A8
:1016E000B0E460E070E0EA14FB040C051D0540F076
:1016F000282B392B4A2B5B2BEA18FB080C091D09F8
:10170000B695A79597958795EE0CFF1C001F111FA6
:101710006F5F7F4F6F31710531F7DA01C9018F7744
:101720009070A070B07080349105A105B10561F48E
:1017300027FD0AC0E114F1040105110529F0205C20
:101740003F4F4F4F5F4F20782D873E874F87588BF5
:10175000BE01675F7F4FCB010E94EC0D6896EAE007
:101760000C94DD0FA8E1B0E0E8EBFBE00C94C50FB2
:1017700069837A838B839C832D833E834F83588731
:1017800089E0E82EF12CEC0EFD1ECE010196B7018A
:101790000E94C10E8E010F5E1F4FCE010596B8014B
:1017A0000E94C10E8985823040F08989823028F0FC
:1017B000C701B8010E94390F01C081E06896E6E0D8
:1017C0000C94E10FA8E1B0E0E8EEFBE00C94C50F4B
:1017D00069837A838B839C832D833E834F835887D1
:1017E00089E0E82EF12CEC0EFD1ECE010196B7012A
:1017F0000E94C10E8E010F5E1F4FCE010596B801EB
:101800000E94C10E8985823040F08989823028F09B
:10181000C701B8010E94390F01C08FEF6896E6E05A
:101820000C94E10FA8E1B0E0E8E1FCE00C94C50FF6
:1018300069837A838B839C832D833E834F83588770
:1018400089E0E82EF12CEC0EFD1ECE010196B701C9
:101850000E94C10E8E010F5E1F4FCE010596B8018A
:101860000E94C10E8985823040F08989823028F03B
:10187000C701B8010E94390F01C08FEF6896E6E0FA
:101880000C94E10FA8E1B0E0E8E4FCE00C94C50F93
:1018900069837A838B839C832D833E834F83588710
:1018A00089E0E82EF12CEC0EFD1ECE010196B70169
:1018B0000E94C10E8E010F5E1F4FCE010596B8012A
:1018C0000E94C10E8985823040F08989823028F0DB
:1018D000C701B8010E94390F01C081E06896E6E0B7
:1018E0000C94E10FA8E0B0E0E8E7FCE00C94C20F34
:1018F0009B01AC0183E08983DA01C9018827B7FD28
:1019000083959927AA27BB27B82E211531054105B4
:10191000510519F482E089833AC08823A9F0203068
:1019200080E0380780E0480780E8580729F460E045
:1019300070E080E09FEC30C0EE24FF248701E21AC3
:10194000F30A040B150B02C079018A018EE1C82E3F
:10195000D12CDC82CB82ED82FE820F831887C801F6
:10196000B7010E949D0D01971816190684F4082EE0
:1019700004C0EE0CFF1C001F111F0A94D2F7ED8269
:10198000FE820F831887C81AD90ADC82CB82BA82FA
:10199000CE0101960E94EC0D2896E9E00C94DE0F32
:1019A000ACE0B0E0E6EDFCE00C94C90F69837A830B
:1019B0008B839C83CE010196BE016B5F7F4F0E949B
:1019C000C10E8D81823061F1823050F1843021F47A
:1019D0008E81882351F12EC02F81388537FD20C09C
:1019E0006E812F3131051CF06623F9F023C08EE1A2
:1019F00090E0821B930B29853A854B855C8504C05A
:101A000056954795379527958A95D2F76623B1F075
:101A100050954095309521953F4F4F4F5F4F0EC0E9
:101A200020E030E040E050E009C02FEF3FEF4FEF03
:101A30005FE704C020E030E040E050E8B901CA01AF
:101A40002C96E2E00C94E50FA8E0B0E0EAE2FDE0BD
:101A50000C94C10F7B018C01611571058105910505
:101A600019F482E0898360C083E089838EE1C82E07
:101A7000D12CDC82CB82ED82FE820F831887C801D5
:101A8000B7010E949D0DFC013197F7FF3BC0222753
:101A900033272E1B3F0B57016801022E04C0D6943A
:101AA000C794B794A7940A94D2F740E050E060E05E
:101AB00070E081E090E0A0E0B0E004C0880F991FE2
:101AC000AA1FBB1F2A95D2F70197A109B1098E2140
:101AD0009F21A023B1230097A105B10521F041E08A
:101AE00050E060E070E04A295B296C297D294D8334
:101AF0005E836F8378878EE190E08E1B9F0B9C83C3
:101B00008B8312C0309781F00E2E04C0EE0CFF1CA8
:101B1000001F111F0A94D2F7ED82FE820F831887EF
:101B2000CE1ADF0ADC82CB821A82CE0101960E9495
:101B3000EC0D2896EAE00C94DD0FEF92FF920F93E4
:101B40001F937B018C0180E0E81680E0F80681E0BD
:101B5000080780E0180788F48FEFE816F104010504
:101B6000110531F028F088E090E0A0E0B0E017C067
:101B700080E090E0A0E0B0E012C080E0E81680E0F5
:101B8000F80680E0080781E0180728F088E190E077
:101B9000A0E0B0E004C080E190E0A0E0B0E020E28E
:101BA00030E040E050E0281B390B4A0B5B0B04C0CF
:101BB00016950795F794E7948A95D2F7F701EC5BB1
:101BC000FE4F8081281B310941095109C9011F912C
:101BD0000F91FF90EF900895DF92EF92FF920F9395
:101BE0001F93FC01E480F58006811781D1808081FC
:101BF000823048F480E090E0A0E1B0E0E82AF92AE1
:101C00000A2B1B2BA5C0843009F49FC0823021F41D
:101C1000EE24FF24870105C0E114F104010511053C
:101C200019F4E0E0F0E096C0628173819FEF6238C2
:101C300079070CF05BC022E83FEF261B370B2A31F7
:101C400031052CF020E030E040E050E02AC0B8013F
:101C5000A701022E04C076956795579547950A947B
:101C6000D2F781E090E0A0E0B0E004C0880F991FB7
:101C7000AA1FBB1F2A95D2F70197A109B1098E218E
:101C80009F21A023B1230097A105B10521F081E098
:101C900090E0A0E0B0E09A01AB01282B392B4A2B51
:101CA0005B2BDA01C9018F779070A070B07080341F
:101CB0009105A105B10539F427FF09C0205C3F4F0C
:101CC0004F4F5F4F04C0215C3F4F4F4F5F4FE0E0ED
:101CD000F0E02030A0E03A07A0E04A07A0E45A076D
:101CE00010F0E1E0F0E079018A0127C06038710569
:101CF00064F5FB01E158FF4FD801C7018F77907061
:101D0000A070B07080349105A105B10539F4E7FEEB
:101D10000DC080E490E0A0E0B0E004C08FE390E06C
:101D2000A0E0B0E0E80EF91E0A1F1B1F17FF05C058
:101D300016950795F794E794319687E016950795E1
:101D4000F794E7948A95D1F705C0EE24FF24870124
:101D5000EFEFF0E06E2F679566276795902F9F77DE
:101D6000D794DD24D7948E2F8695492F462B582F54
:101D70005D29B701CA011F910F91FF90EF90DF908D
:101D80000895FC01DB01408151812281622F6F7730
:101D900070E0221F2227221F9381892F880F822B18
:101DA000282F30E0991F9927991F11969C9311971E
:101DB00021153105A9F5411551056105710511F48C
:101DC00082E037C082E89FEF13969C938E93129720
:101DD0009A01AB0167E0220F331F441F551F6A951C
:101DE000D1F783E08C930DC0220F331F441F551F82
:101DF00012968D919C911397019713969C938E93B5
:101E00001297203080E0380780E0480780E45807C8
:101E100058F314962D933D934D935C931797089523
:101E20002F3F310579F4411551056105710519F40C
:101E300084E08C93089564FF03C081E08C9312C00A
:101E40001C9210C02F57304013963C932E9312973C
:101E500083E08C9387E0440F551F661F771F8A9598
:101E6000D1F7706414964D935D936D937C9317979F
:101E700008951F93DC01FB019C91923008F447C048
:101E80008081823008F443C0943051F411961C9143
:101E9000843099F58181682F70E0611B71093FC022
:101EA000843021F0923031F48230B9F1818188237D
:101EB00089F12DC011961C9111978230F1F081812A
:101EC0001817D9F412962D913C9113978281938122
:101ED0008217930794F028173907BCF014968D9158
:101EE0009D910D90BC91A02D248135814681578113
:101EF000281739074A075B0718F4112341F00AC075
:101F000082179307A407B50740F4112319F061E085
:101F100070E005C06FEF7FEF02C060E070E0CB01C2
:101F20001F91089597FB092E07260AD077FD04D04C
:101F30000CD006D000201AF4709561957F4F08955B
:101F4000F6F7909581959F4F0895AA1BBB1B51E111
:101F500007C0AA1FBB1FA617B70710F0A61BB70B19
:101F6000881F991F5A95A9F780959095BC01CD01BE
:101F700008952F923F924F925F926F927F928F922D
:101F80009F92AF92BF92CF92DF92EF92FF920F9308
:101F90001F93CF93DF93CDB7DEB7CA1BDB0B0FB612
:101FA000F894DEBF0FBECDBF09942A8839884888CF
:101FB0005F846E847D848C849B84AA84B984C88465
:101FC000DF80EE80FD800C811B81AA81B981CE0F5C
:101FD000D11D0FB6F894DEBF0FBECDBFED01089541
:041FE000F894FFCFA3
:101FE4004C6F7264206F66746865204C696E65730B
:101FF4000053746172740053657474696E6773007E
:10200400506175736500312E204D617820537065E1
:10201400656400322E2042617365205370656564E7
:1020240000332E2050726F706F74696F6E616C0094
:10203400342E20496E74656772616C00352E20441D
:1020440065726976617469766500372E2041646A29
:102054007573742053656E736F7200362E20446F4F
:102064006E65004D61782053706565643A200042C6
:102074006173652053706565643A200050726F7017
:102084006F74696F6E616C3A2000496E7465677293
:10209400616C3A2000446572697661746976653AC8
:1020A400200053656E736F7273004E4157415A009E
:1020B4000172FA00AF001E000400080000000000D6
:1020C40000000000000102020303030304040404EB
:1020D40004040404050505050505050505050505B0
:1020E4000505050506060606060606060606060690
:1020F400060606060606060606060606060606067C
:10210400060606060707070707070707070707075F
:10211400070707070707070707070707070707074B
:10212400070707070707070707070707070707073B
:10213400070707070707070707070707070707072B
:10214400070707070808080808080808080808080F
:1021540008080808080808080808080808080808FB
:1021640008080808080808080808080808080808EB
:1021740008080808080808080808080808080808DB
:1021840008080808080808080808080808080808CB
:1021940008080808080808080808080808080808BB
:1021A40008080808080808080808080808080808AB
:1021B400080808080808080808080808080808089B
:0421C40008080808F7
:00000001FF
