:100000000C942A000C9434000C9434000C943400AA
:100010000C9434000C9434000C9434000C94340090
:100020000C9434000C9434000C9434000C94340080
:100030000C9434000C9434000C9434000C94340070
:100040000C9434000C9434000C9434000C94340060
:100050000C94340011241FBECFE5D4E0DEBFCDBF29
:100060000E9436000C9489000C940000EF92FF92DD
:100070000F931F938FEF8ABB5FEF28EA31E69AEA6E
:10008000E92E85E5F82E4CEC03E317EEB0E8A0EC82
:10009000F0EEE0EF78EF6EEF5BBBC9010197F1F78F
:1000A0001BBAC9010197F1F7EBBAC9010197F1F742
:1000B000FBBAC9010197F1F74BBBC9010197F1F7F1
:1000C0000BBBC9010197F1F71BBBC9010197F1F700
:1000D0004BBBC9010197F1F7BBBBC9010197F1F710
:1000E000ABBBC9010197F1F7FBBBC9010197F1F760
:1000F000EBBBC9010197F1F77BBBC9010197F1F790
:100100006BBBC9010197F1F75BBBC9010197F1F71F
:06011000C3CFF894FFCFFD
:00000001FF
