:100000000C942A000C9434000C9434000C943400AA
:100010000C9434000C9434000C9434000C94340090
:100020000C9434000C9434000C9434000C94340080
:100030000C9434000C9434000C9434000C94340070
:100040000C9434000C9434000C9434000C94340060
:100050000C94340011241FBECFE5D4E0DEBFCDBF29
:100060000E9436000C944C000C9400008FEF8ABB69
:100070004FEF29E130E04BBB80E197E2F901319786
:10008000F1F70197D9F71BBA80E197E2F9013197AF
:0C009000F1F70197D9F7EFCFF894FFCFFC
:00000001FF
